:100CF0004845534150204D414B494E4553494E457F
:100D000000484F5347454C44494E495A0021202141
:0D0D100020482041205420412021202100B6
:100D8100C185C187C181C180C182C184C183C1863E
:0B0D910002110000021300000110001E
:10080000120D487BFF7A0C79F0120D1D7F0A7E00D5
:10081000120CCA7FC2120D9D7BFF7A0D7901120D59
:100820001D7F967E00120CCA120D48C2942094407F
:1008300020900D7F37120DAB7F07120B9C3090FD7F
:1008400020910D7F34120DAB7F04120B9C3091FD73
:1008500020920D7F31120DAB7F01120B9C3092FD67
:100860003006032093FD209303120D48D29480BDDF
:10087000C29520954420900D7F38120DAB7F081251
:100880000B9C3090FD20910D7F35120DAB7F051232
:100890000B9C3091FD20920D7F32120DAB7F021226
:1008A0000B9C3092FD20930D7F30120DABE4FF12B4
:1008B0000B9C3093FDD29580B9C29620965420901F
:1008C0000D7F39120DAB7F09120B9C3090FD2091EA
:1008D0000D7F36120DAB7F06120B9C3091FD2092DE
:1008E0000D7F33120DAB7F03120B9C3092FD2093D2
:1008F0001D7FC0120D9D120CC67F3D120DABAD14B5
:10090000AC13AF12AE11120974D2063093FDD29619
:1009100080A9C29730970302082B2004532002506D
:1009200020004D20014A20050330074420900E7F0F
:100930002F120DABD204C205D2073090FD20910ECC
:100940007F78120DABD202C205D2073091FD209202
:100950000E7F2D120DABD200C205D2073092FD20C2
:10096000930E7F2B120DABD201C205D2073093FD3F
:04097000D29780A0FA
:100B9C008F080510E510B4030C2001092000062075
:100BAC000203300412E510640570222001092000B4
:100BBC0006200203300416120D487BFF7A0D790DC6
:100BCC00120D1D7FC87E00120CCA020D4820070CA6
:100BDC00200509751100850812D2052220071C304A
:100BEC000519AE11AF127C007D0A120AFFEF250821
:100BFC00F512EC3EF511C205D2072230070E200586
:100C0C000B751300850814D205D2072230071B3050
:100C1C000518AE13AF147C007D0A120AFFEF2508ED
:0B0C2C00F514EC3EF513C205C20722D0
:080974008E088F098C0A8D0B1F
:10097C00E4F50CF50DF50EF50F30010CE50B250922
:10098C00F509E50A3508F50830002BC3E509950B88
:10099C00E508950A400EE509950BF509E508950A59
:1009AC00F5088012C3E50B9509F509E50A9508F5DC
:1009BC00087F2D120DAB30040FAE08AF09AC0AAD99
:1009CC000B120B118E088F0930020FAE08AF09AC59
:1009DC000AAD0B120AFF8E088F09D3E50994E7E5DF
:1009EC00089403403EAE08AF097C037DE8120B115E
:1009FC008E0C8F0DAE08AF097C037DE8120B118CA9
:100A0C000E8D0FAE0EAF0F7C007D64120B668C0842
:100A1C008D09AE0EAF0F7C007D64120B668E0E8FAF
:100A2C000F8029D3E5099463E5089400401EAE08B5
:100A3C00AF097C007D64120B118E0E8F0FAE08AFC8
:100A4C00097C007D64120B118C088D09AE08AF096E
:100A5C007C007D0A120B118C0A8D0BAE08AF097C41
:100A6C00007D0A120B118E088F097430250DF50DBF
:100A7C00E4350CF50C7430250FF50FE4350EF50E3E
:100A8C0074302509F509E43508F5087430250BF5A3
:100A9C000BE4350AF50AE50D6430450C6007AF0D23
:100AAC00120DAB8008E50F6430450E6007AF0F12D6
:100ABC000DAB8008E509643045086005AF09120DDF
:060ACC00ABAF0B020DAB05
:070CC300120D9D7F017E0070
:100CCA00E4FDFCC3ED9FEE6480F8EC648098501557
:100CDA00E4FBFA0BBB00010ABA04F8BBFBF50DBD35
:050CEA0000010C80DE9A
:010CEF0022E2
:0E0D9D008FB0C2A5C2A6D2A7120CC6C2A72252
:0E0DAB008FB0D2A5C2A6D2A7120CC6C2A72234
:100D4800E4F5B07F38120CC3120CC37F10120CC329
:0D0D58007F0F120CC37F80120D9D020D65F0
:060D1D008B098A0A890B14
:100D2300E4F50CF50DAB09AA0AA90B850D82850C18
:100D330083120AD2FF600D120DAB050DE50D70E5B0
:040D4300050C80E13A
:010D47002289
:100D6500C206C207C205C203C204C202C200C20152
:0C0D7500E4F510F513F514F511F5122249
:03000000020C37B8
:0C0C3700787FE4F6D8FD758120020C7E69
:100AD200BB010CE58229F582E5833AF583E02250D9
:100AE20006E92582F8E622BBFE06E92582F8E22223
:0D0AF200E58229F582E5833AF583E493223D
:100AFF00EF8DF0A4A8F0CF8CF0A428CE8DF0A42E0B
:020B0F00FE22C4
:100B1100BC000BBE0029EF8DF084FFADF022E4CCC8
:100B2100F875F008EF2FFFEE33FEEC33FCEE9DEC91
:100B3100984005FCEE9DFE0FD5F0E9E4CEFD22EDD7
:100B4100F8F5F0EE8420D21CFEADF075F008EF2F21
:100B5100FFED33FD4007985006D5F0F222C398FD12
:050B61000FD5F0EA22AF
:100B6600C2D5EC30E709B2D5E4C39DFDE49CFCEEAA
:100B760030E715B2D5E4C39FFFE49EFE120B11C306
:100B8600E49DFDE49CFC8003120B1130D507C3E401
:060B96009FFFE49EFE2219
:100C4300020800E493A3F8E493A34003F68001F2BF
:100C530008DFF48029E493A3F85407240CC8C333B2
:100C6300C4540F4420C8834004F456800146F6DF81
:100C7300E4800B0102040810204080900D81E47E83
:100C8300019360BCA3FF543F30E509541FFEE49376
:100C9300A360010ECF54C025E060A840B8E493A33D
:100CA300FAE493A3F8E493A3C8C582C8CAC583CA68
:100CB300F0A3C8C582C8CAC583CADFE9DEE780BE20
:010D9C000056
:00000001FF
